:020000041000EA
:1000000000B5324B212058609868022188439860DF
:10001000D860186158612E4B002199600221596106
:100020000121F02299502B49196001219960352056
:1000300000F044F80222904214D00621196600F024
:1000400034F8196E01211966002018661A6600F04E
:100050002CF8196E196E196E052000F02FF8012189
:100060000842F9D1002199601B49196000215960AB
:100070001A491B48016001219960EB211966A021F2
:10008000196600F012F800219960164914480160C1
:100090000121996001BC002800D000471248134993
:1000A000086003C880F30888084703B5996A0420EC
:1000B0000142FBD001200142F8D103BD02B5186610
:1000C0001866FFF7F2FF186E186E02BD00000240BE
:1000D000000000180000070000035F00212200005C
:1000E000F4000018222000A00001001008ED00E03C
:1000F00000000000000000000000000074B24E7A12
:1001000000200420F7010010C3010010C5010010F9
:10011000C1010010C1010010C1010010C101001097
:10012000C1010010C1010010C1010010C701001081
:10013000C1010010C1010010C9010010CB01001065
:10014000CD010010CD010010CD010010CD01001037
:10015000CD010010CD010010CD010010CD01001027
:10016000CD010010CD010010CD010010CD01001017
:10017000CD010010CD010010CD010010CD01001007
:10018000CD010010CD010010CD010010CD010010F7
:10019000CD010010CD010010CD010010CD010010E7
:1001A000CD010010CD010010CD010010CD010010D7
:1001B000CD010010CD010010CD010010CD010010C7
:1001C00000BE00BE00BE00BE00BE00BE00F04BF888
:1001D000103800BEF2EB887138A600105CA6001043
:1001E0003402001090A31AE700202149086006C8D5
:1001F00081F3088810471F48006800282FD10DA4FC
:100200000ECC002902D000F012F8F9E71A491B4A77
:10021000002000E001C19142FCD1194988471949E9
:1002200088471949884700BEFDE701C901C29A42C3
:10023000FBD370475CA60010C00000202005002002
:10024000BCAA00100000042000000420BCAA00107A
:1002500000100420001004200000000070470B482C
:1002600004F084FF0047EFF30580C0B27047000040
:1002700008ED00E0000000D0200500201C12002046
:1002800095370010F9210010513700105756000023
:1002900006005250ABB36053809F001006005250CE
:1002A000861C0302909F0010060052505422A29D0B
:1002B0009C9F001005005250DE65F468BCAA001037
:1002C000F8B5C046044B10B5002B03D003490448D1
:1002D00000E000BF10BDC04600000000A80F0020D5
:1002E000C08F00100378427812021A432A23534326
:1002F0005B0800E0C046013B002BFBD10B700148BE
:100300007047C046010002000378012B03D9FF2388
:100310000B700248704700230B70FAE701000200DF
:1003200000234370037002207047000070B50E0078
:10033000027843781B021A4383781B041A43C3785C
:100340001B061A430AD0124B9A420AD9114B0122BA
:100350005A705A60002333700F4870BDFF230B7032
:10036000FAE70C4B00215970501E00210B4C002560
:1003700000196941002304F08FFF022805D90321E9
:1003800004F048FF034B5860E4E70120FAE7C04659
:100390001FBCBE002006002001000400A0ACB90371
:1003A00002780323134001330448037692080123A3
:1003B0001A40427600230B70014870472006002047
:1003C0000100010030B5FF230B70411C0278FE3B99
:1003D00006E00730C008421C89181B1801332A00A8
:1003E000551E002A07D00A783F24200010401442EE
:1003F000EFD14020EDE718040123184330BD007809
:10040000FF230B7001300004FE3B184370470000CF
:10041000FF230B70004870470100010010B50278FF
:10042000074B1A7342788478240222431A82C278D6
:100430000079000202435A8200230B70014810BD6C
:10044000200600200100050070B5831C427801E001
:100450000533013A002A09D05D1C1C78A607F7D5A0
:10046000E40601D50533F4E72B00F2E70A704A7081
:10047000181A00040223184370BD000070B58EB036
:100480000C00F02856D036D804284CD0072811D1BB
:1004900001AE2C4B1A6801921B793371300008F0C1
:1004A00027FDC5B20135EDB22A003100200005F06C
:1004B000B5FD1DE003281AD101AE234B320003CB5A
:1004C00003C2198811809B789370262200210F2087
:1004D000684405F09DFD300008F00AFDC5B2013505
:1004E000EDB22A003100200005F098FD00E0002563
:1004F00028000EB070BDFE2820D0FF2805D1402373
:100500000B7000234B700225F2E7F12809D140233C
:100510000B7002334B70333B8B700023CB70042580
:10052000E6E70025E4E706220849200005F076FD0D
:100530000625DDE731230B700125D9E704230B7075
:100540000125D5E7C08F0010AC900010C88F0010B7
:1005500070B50D00411C0478002C01D10134FF342A
:10056000200000F013FE00232B700734E008013058
:1005700000040124204370BDF0B5DE4657464E46C8
:100580004546E0B587B002900A00039102329246D8
:10059000C44B00221A70861C4378984600230193AE
:1005A0000093934644E1140005A9280000F0E8FEFA
:1005B000022839D1621E002C38D0BA4B1B78002B90
:1005C000F1D0030014E0140005A90E2000F0D8FEBD
:1005D00002280AD1621E002C23D0B24B1B78002BBC
:1005E000F1D003000022009202E0030000220092FA
:1005F000012B00D091E1059A51460A70059A120A22
:100600004A70059A120C8A700431059A120E5046EF
:10061000C270009A002A18D06AB2002A08DB8A4603
:1006200014E003000094E3E70300E1E70300DFE7E1
:100630009D4A92680271110A4171110C8171120E6A
:10064000C27108229446E24400E08A46EA0661D577
:100650007378B27812021343F2781204134332799A
:1006600012061343994605368F4B5F8AEB0719D55F
:100670008D4B1C8A00E014000021280000F080FE51
:10068000022806D1621E002C03D0864B1B78002B5B
:10069000F1D00300012803D14B46B1461E0024E0EF
:1006A00042462EE14B46B1461E001EE0140005A94D
:1006B000280000F065FE0300022806D1621E002C0F
:1006C00003D0784909780029F0D0012B10D1764A5F
:1006D000526905990A40B2420AD0791E002F07D00C
:1006E000704A1278002A03D10F006F4B1C8ADEE794
:1006F00032004E4691466C4A526905990A404A4575
:1007000002D010230343DBB2012B00D011E1002201
:10071000019282E0644A148AEA0734D5009A002ADA
:1007200004D03E000022019277E01400002128004E
:1007300000F026FE022806D1621E002C03D0594B81
:100740001B78002BF1D00300012800D0E8E06DB247
:10075000002D04DB009A019200903E005DE0524AB9
:10076000926851460A70110A50464170110C81700E
:10077000120EC270009A0192009304229446E24441
:100780003E004AE0140005A9280000F0F9FD022807
:1007900006D1621E002C03D0424B1B78002BF1D0F7
:1007A0000300012800D0BEE06DB2002D12DB059AD7
:1007B00051460A70059A120A4A70059A120C8A70FC
:1007C000059A120ECA7004229446E2443E000022AA
:1007D000019222E0344A926851460A70110A50464A
:1007E0004170110C8170120EC27004229446E244D2
:1007F000DDE7009B002B2ED17378B27812021343F1
:10080000F278120413433279120613430593053626
:10081000AA064BD5244A5361012301229446E3449E
:10082000204A1278002A00D087E0013A9446E0443A
:100830004246002A65D0771C3578AA07D9D5009A98
:10084000002A00D102E7184B1C8A11232B40012BF0
:1008500000D0B9E6A8E6144B1C8A00E0140005A9F4
:100860000E2000F08DFD022806D1621E002C03D060
:100870000C4B1B78002BF1D00300012856D1059BAF
:1008800052461370059B1B0A5370059B1B0C9370FB
:10089000059B1B0ED37004239C46E2440023009367
:1008A000AAE7C04611120020200600204C4B1C8AEB
:1008B00000E0140005A9280000F062FD022806D11E
:1008C000621E002C03D0474B1B78002BF1D0030095
:1008D000012830D16DB2002D01DB01909DE7404A27
:1008E000926851460A70110A50464170110C81708D
:1008F000120EC270019304229446E2448DE705363D
:10090000013A002A1BD0701C31788C07F7D5C90634
:1009100001D50536F4E70600F2E73E004246F0E76F
:100920003E004246EDE73E004246EAE73E004246D0
:10093000E7E74246E5E74246E3E74246E1E7012BC7
:1009400010D0039A594611705370029BF01A00049C
:100950005346991A084307B0F0BCBB46B246A946B5
:10096000A046F0BD009A002A23D01D4B1C8A00E04F
:10097000140005A90E2000F003FD022806D1621E16
:10098000002C03D0174B1B78002BF1D0030001285B
:10099000D7D1059A51460A70059A120A4A70059AEB
:1009A000120C8A70059A120ECA7004229446E24410
:1009B000C7E7019A002AC4D0094B1C8A00E00C004A
:1009C00000210E2000F0DCFC03000228B9D1611EDA
:1009D000002CB6D0034A1278002AF0D0B1E7C04606
:1009E000200600201112002010B5054B1B78012BAA
:1009F00002D0FFF729FD10BDFFF7BEFDFBE7C046A3
:100A000020060020F0B5D6464F464646C0B582B017
:100A10008846CF1C524B00221A70447883781B0200
:100A20001C4300D188E0061DC3781D009A076DD5D0
:100A3000DB0740D54B4B1E8A00E016000021280042
:100A400000F09EFC022806D1721E002E03D0444BFB
:100A50001B78002BF1D001282ED000246DE0EB078D
:100A600026D50E2524E0160001A9280000F088FCF8
:100A7000022806D1721E002E03D0394B1B78002BA2
:100A8000F1D0012859D1019B3B70019B1B0A7B705F
:100A9000019B1B0CBB70019B1B0EFB7001344B4672
:100AA00004375A1E9146002B47D04B46002BD6D018
:100AB0002C4B1E8AD8E7002023000024F1E71C00FD
:100AC00001A9280000F05CFC022806D1631E002C5E
:100AD00003D0234A1278002AF1D0012839D101230A
:100AE0009C46E1445446631E9A46002C11D033784C
:100AF000727812021343B27812041343F27812068A
:100B0000134301930436174B1C8AD9E700239946F7
:100B1000E9E7144B1C8A00E0140000210E2000F0CD
:100B20002FFC022817D1621E002C16D00C4B1B780C
:100B3000002BF1D04C4600E0200043461C70240AF4
:100B40005C709870F81A02B0E0BCBA46B146A8468C
:100B5000F0BD4C46F1E74C46EFE74C46EDE7C046AA
:100B6000111200202006002010B504000D4B1B7848
:100B7000012B0BD000230B704B708B700320E3789C
:100B80009B0706D58023DB02184310BDFFF73AFF11
:100B9000F5E76378A2781202134301339B041843EC
:100BA000F3E7C0462006002010B582B00C00437861
:100BB000827812021343C278120413430279120698
:100BC0001343019301A9002000F0DAFB00232370F6
:100BD000012002B010BD000010B5074B1B78012B9F
:100BE00006D0FF230B70FE3BA020C002184310BDAF
:100BF000FFF7DAFF0300F7E720060020F8B5DE462E
:100C000057464E464546E0B54B1C994600230B70AF
:100C1000421C037801218A4688461FE00734E40815
:100C20006BB29B46002B25DB002200211A2001F02D
:100C3000FBFBD0231B068022D2045A629A614A46EB
:100C40003900280000F0F2FA002E1ED05B46002B7F
:100C500027DB3A194444631C984633005E1E002B80
:100C600026D0571C15783F231C002C402B42D5D191
:100C70004024D3E7002201211A2001F0D5FBD02324
:100C80001B068022D2049A62D9E7002200211A2092
:100C900001F0CAFBD0231B068022D2045A629A615B
:100CA000D4E701239C46E044A144A2443A00D4E79F
:100CB0004346180453461843F0BCBB46B246A94607
:100CC000A046F8BD70B50D000478002C03D0012CAF
:100CD00002D000241EE00124104B01221A701B20B8
:100CE00001F0BCFBD026360680231B0573627361BE
:100CF0001A2001F0B3FB8023DB04736273610022CE
:100D00000021162001F090FB162001F0A7FB8023A4
:100D1000DB03B3622C70024870BDC0462006002081
:100D20000100010070B504000026144B1E70002263
:100D300000211A2001F078FB1A2001F08FFBD0254A
:100D40002D068023DB04AB62002200211B2001F072
:100D50006BFB1B2001F082FB80231B05AB62002292
:100D60000021162001F060FB162001F077FB8023A4
:100D7000DB03AB622670012070BDC0462006002058
:100D8000F0B5DE4657464E464546E0B585B0039180
:100D90000678029644788578C3781B021D43037950
:100DA0001B041D4343791B061D4301231A002240E7
:100DB0009146234206D0F30734D5D0231B06802268
:100DC00012055A6102231A0022409246234206D09D
:100DD000B3072DD5D0231B068022D2045A610423E9
:100DE00023409846202323409B4664B2002C25DBF9
:100DF000002D00D1A0E06B4B9D4200D91D0002F0F8
:100E000075F9002936DB3BD0FA229200002304F06A
:100E100043FAFA21890004F0FDF901904B46A146FE
:100E20001C004DE0D0231B06802212059A61C9E701
:100E3000D0231B068022D2049A61D0E7F70916203E
:100E400001F00CFBD0231B068022D2035A62002F34
:100E500008D01A001B6901214B408021C9030B40B7
:100E6000D361C5E7D022120613698021C9030B4064
:100E7000D361BDE74C4B4D4A3F214D4802F06CFC1D
:100E8000FA21890004F0C6F9C3E702F02FF900291E
:100E900000DA7CE000D180E0FA229200002304F026
:100EA000FBF9FA21890004F0B5F9019BC21A50013F
:100EB000801A8301181AC00080188001A8423BD212
:100EC000002C0AD0D0231B065B6880221205134039
:100ED0005A1E9341029A9A42D7D15346002B0AD008
:100EE0007208D0231B065B688021C9040B40591E81
:100EF0008B419A42C9D14346002B01D0B308C4D1DB
:100F00005B46002B01D07309BFD14B46002B13DA8F
:100F1000F70900220121162001F086FA162001F0BF
:100F20009DFAD0231B068022D2039A625B6813408D
:100F30005A1E93419F42A8D1D0252D066C6880236C
:100F40001B0523405A1E93416C688022D204144032
:100F5000621E944164001C4300220121162001F00E
:100F600063FA162001F07AFA8022D203AA626B6833
:100F700013405A1E9341DB012343039A13700D481B
:100F800005B0F0BCBB46B246A946A046F0BD064B34
:100F9000064A3F21064802F0DFFBFA21890004F0EF
:100FA00039F97EE7C0C62D00D08F0010E090001008
:100FB000EC8F001001000600FF230B700048704703
:100FC00001000100FF230B70004870470100010081
:100FD00030B583B00C0003781A00803AD2B21F2AD1
:100FE0000ED91A006032D2B25E2A0CD901312370B8
:100FF000421C1D2B00D96FE09B00394DEB589F46DA
:10100000FFF7DAFF16E0FFF7DDFF13E0A11C4078E1
:10101000FFF734FA0190019B63700198314B9C46B5
:10102000604407E01000FFF76FF9019001982E4B24
:101030009C46604403B030BD1000FFF743FE0190B2
:10104000F4E70800FFF76EFE0190EFE71000FFF7EE
:1010500049F90190EAE70800FFF762F90190E5E736
:101060001000FFF78DFE0190E0E71000FFF75EF93A
:101070000190DBE71000FFF76BFA0190D6E7100054
:10108000FFF78EF90190D1E71000FFF7B7FD01904F
:10109000CCE71000FFF796F90190C7E71000FFF7C3
:1010A000AEF90190C2E71000FFF7B2F90190BDE779
:1010B0001000FFF7B3F90190B8E71000FFF794FCB8
:1010C0000190B3E71000FFF74FFD0190AEE710006D
:1010D000FFF782FD0190A9E7FF2323700248A9E7EB
:1010E000349000100200020001000100F8B50378FE
:1010F0007F2B04D0FFF76CFF04002000F8BD0B70BD
:10110000861C43788D1C4B70084C0AE02900300087
:10111000FFF75EFF2418030CF6180004000C2D18CE
:101120003B005F1E002BF1D1E7E7C0460200020042
:1011300010B5154B00221A701A73642119825A8255
:101140005A6101321A7600225A765A7015225A6074
:101150001B2001F083F9D024240680231B05636241
:1011600063611A2001F07AF98023DB046362636112
:1011700000220121162001F057F9162001F06EF926
:101180008023DB03A36210BD20060020F0B5D64605
:101190004F4646468C46C0B5441E00282AD08023C0
:1011A000DB0498460123D0218026002500209946A3
:1011B0001D4F09063605002D2ED0013D4B4603423A
:1011C0001DD043464B617A688E615208531E012A36
:1011D0001DD0C046013B002BFBD17A684E615208FE
:1011E000531E012A03D0C046013B002BFBD140080F
:1011F000013CE0D2E0BCBA46B146A846F0BD434649
:101200008B617A688E615208531E012AE1D14E61CA
:101210004008013CCFD2EDE76346187801239A4697
:101220000725D444CAE7C04620060020F0B53F2475
:10123000DE4657464E4645460B002100E0B50140CC
:10124000044200D1402100064AD50123D024802544
:1012500094469A46494E24062D05002208239146BD
:10126000083A93465B1A080098468B4400286BD0D6
:101270007268A5615208531E012A23D0C046013B63
:10128000002BFBD1514662687768920E7F087B1E67
:101290000A406561012F03D0C046013B002BFBD102
:1012A0004B46D2015B081343013899465845DDD1BE
:1012B00063464A461A7001239846C44400283DD02C
:1012C0000100CAE7534662680138920E1A404B4645
:1012D000D2015B081343994665615845C6D1E7E7DB
:1012E0009946012398467F33D0248025DB049C4611
:1012F000224E24062D054B460F001878083F434622
:10130000034227D0634663617268A5615208531E89
:10131000012A27D0C046013B002BFBD172686561D2
:101320005208531E012A03D0C046013B002BFBD1BB
:1013300001394008B9421AD00029E0D1F0BCBB46BF
:10134000B246A946A046F0BD42464B46D34062464F
:101350001370F3E76346A3617268A5615208531ED8
:10136000012AD7D1013965614008B942E4D101238E
:101370009A46D1440029BED1E0E7C04620060020AD
:10138000F0B54E464546DE465746E0B5754C05007D
:101390006378894683B0002B00D1E5E0D02380211B
:1013A00080221B06C904120559619A61C046C046D5
:1013B000C0465A61C046C046C046C20700D5C3E217
:1013C0009961D02380221B0612059A61C046C0464F
:1013D000C0465A61C046C046C0466908AA0700D444
:1013E000C8E28022D2045A61D02380221B06120553
:1013F0009A61C046C046C0465A61C046C046C04613
:10140000A8080918C20700D4B0E28022D2045A61A9
:10141000D02380221B0612059A61C046C046C046F2
:101420005A61C046C046C0466918E8082A0700D479
:1014300092E28022D2045A61D02380221B06120538
:101440009A61C046C046C0465A61C046C046C046C2
:101450000918CA0700D47BE28022D2045A61D0273F
:1014600080263F063605BE61C046C046C0467E6146
:10147000C046C046C0468023DB04BB619846BE61BF
:10148000C046C046C0467E61C046C046C0467B617D
:10149000BE61C046C046C0467E61C046C046C0462A
:1014A000002201211A2000F0BFFF4346BB62237EC9
:1014B000002B0AD0BE61C046C046C0467E61C04611
:1014C000C046C046013B002BF4D1D02780203F0608
:1014D0000005B861C046C046C0467E687861C04617
:1014E000C046C046B861C046C046C0467B68786109
:1014F000C046C046C046B861C046C046C0467A68CD
:101500007861C046C046C04601219B0E920E0B403A
:101510000A40B60E5B009200314013430B431E009D
:10152000012B00D1E2E20222023B934300D144E2CC
:10153000237E2133B861C046C046C0467861C046AC
:10154000C046C046013B002BF4D1F3B2002200217B
:101550001A20984600F068FF8023DB047B62BB61A1
:101560007B61E9E120060020D02280238020120642
:10157000DB04000553619061616849084B1E012935
:1015800000D118E2C046013B002BFBD180216268EC
:10159000D0331B06520809055961531E012A06D093
:1015A000C046013B002BFBD163685B08013BEA07A7
:1015B00000D4F5E1D02280211206C9045161D02265
:1015C0008021120609059161002B01D100F010FC69
:1015D000C046013B002BFBD180216268D0331B0643
:1015E000520809055961531E012A06D0C046013B25
:1015F000002BFBD163685B08013B6808AA0700D495
:10160000C8E1D02280211206C9045161D022802174
:10161000120609059161002B01D100F0E6FBC046DE
:10162000013B002BFBD18022D0331B0612055A61EF
:1016300062685208531E012A06D0C046013B002BA7
:10164000FBD163685B08013BAA088018D20700D46D
:101650009AE1D02280211206C9045161D022802152
:10166000120609059161002B01D100F0BCFBC046B8
:10167000013B002BFBD18022D0331B0612055A619F
:1016800062685208531E012A06D0C046013B002B57
:10169000FBD163685B08013B2818EF082A0700D4D8
:1016A0006CE1D02280211206C9045161D022802130
:1016B000120609059161002B00D192E3C046013B5F
:1016C000002BFBD18022D0331B0612055A616268C1
:1016D0005208531E012A06D0C046013B002BFBD105
:1016E00063685B08013BC019C20700D438E1D0220F
:1016F00080211206C9045161D022802112060905F9
:101700009161002B00D150E3C046013B002BFBD17F
:1017100080216268D0331B06520809055961531EA7
:10172000012A00D142E3C046013B002BFBD18021BE
:10173000D0331B06C90462689961802152080905EB
:101740009961531E012A00D138E3C046013B002BAA
:10175000FBD180216268D0331B065208090559610C
:10176000531E012A00D12EE3C046013B002BFBD1C2
:101770008021D0331B06C904626859618021520858
:1017800009059961531E012A00D124E3C046013B9B
:10179000002BFBD180216268D0331B06520809055B
:1017A0005961531E012A03D0C046013B002BFBD1D7
:1017B00001211A20002200F037FED02080230006ED
:1017C000DB048362217E002900D1EAE2802762687F
:1017D0003F0552088761531E012A00D1B6E0C0467A
:1017E000013B002BFBD1626847615208531E012A5E
:1017F00006D0C046013B002BFBD162685208531E45
:1018000001390029E6D1D02280201206000590611E
:10181000002B00D1A0E2C046013B002BFBD1802170
:101820000127D0331B0658686268090559615208C0
:10183000810E3940531E012A00D192E2C046013B7D
:10184000002BFBD18022D0331B0612059A616268FF
:101850005208531E012A00D188E2C046013B002BEA
:10186000FBD180200127D0331B065A680005586140
:10187000920E174062685208531E012A00D17EE280
:10188000C046013B002BFBD18022D0331B06120542
:101890009A61626878005208531E012A00D174E2EE
:1018A000C046013B002BFBD180260122D0331B0612
:1018B0005F6836055E61BF0E3A4067687F087B1E31
:1018C000012F03D0C046013B002BFBD197000743FB
:1018D0000F43012F00D17BE10222BB1E934300D1B5
:1018E000AAE0D0258020217E2D06213100056268E6
:1018F000A8615208531E012A58D0C046013B002B54
:10190000FBD1626868615208531E012A03D0C046A9
:10191000013B002BFBD101390029E8D10022002135
:101920001A2000F081FDD0238022F9B288461B06E0
:10193000D2045A629A615A61404603B0F0BCBB4679
:10194000B246A946A046F0BD59613AE5476157E75E
:101950008022D2049A6182E58022D2049A616BE5EA
:10196000D02280211206C9049161C5E68022D204EA
:101970009A614DE58022D2049A6135E5D02280211A
:101980001206C904916191E6D02280211206C90491
:10199000916163E6D02280211206C904916135E687
:1019A000D02280211206C904916108E601396861DC
:1019B00000299CD1B2E75061F9E5637E002B02D08B
:1019C0002A4200D00EE3237E002B0ED0D0218022AD
:1019D000090612058A61C046C046C0464A61C04633
:1019E000C046C046013B002BF4D100221A20002142
:1019F00000F01AFDD0228020637E1206C0045062DF
:101A00009061002B10D0AB070ED480212123906170
:101A100009059161C046C046C0465161C046C046F6
:101A2000C046013B002BF4D1D0238022F1B21B062B
:101A3000D20488465A617FE7637E002B02D02A4297
:101A400000D0A7E2217E00291AD0D02680203606B9
:101A50000005B06162685208531E012A44D0C04696
:101A6000013B002BFBD1706162685208531E012AB2
:101A700003D0C046013B002BFBD101390029E8D13E
:101A800000221A20002100F0CFFCD0208023000685
:101A9000DB0443628361627E002A1DD0AA071BD447
:101AA0008025212183612D05626885615208531EBE
:101AB000012A00D1B5E2C046013B002BFBD14561B4
:101AC00062685208531E012A03D0C046013B002B16
:101AD000FBD101390029E7D1D0238022F9B21B06BE
:101AE000D20488465A6127E77061C6E702231A00CC
:101AF0002A4090462B4200D103E2002320260021F9
:101B000098460122B861C046C046C0467B687861ED
:101B10009B0E1340C046C046C04649089844013E4B
:101B2000DB071943002EEDD1B861C046C046C04660
:101B30007B687861C046C046C0469F0E434617404A
:101B40005F4006231740013F9F4302339C46B8463F
:101B50004B46E044002B00D01960237E002B0ED0B2
:101B6000D0218022090612058A61C046C046C046BF
:101B70004A61C046C046C046013B002BF4D100225A
:101B800000211A2000F050FCD02380221B06D20432
:101B90005A629A612B0600D566E2237B002B11D096
:101BA000D02280211206C90491618021090591612A
:101BB000C046C046C0465161C046C046C046013B13
:101BC000002BF4D1D02380221B06D2045A61B3E645
:101BD00002231F002F40BA462B4200D10BE17E3377
:101BE0001B05984620239C460023D02701930133F0
:101BF00000209A4662683F0652084346BB61531E66
:101C0000012A00D1A1E0C046013B002BFBD1434695
:101C100079687B6153466268890E52081940531EE9
:101C2000012A06D0C046013B002BFBD16268520856
:101C3000531E01267642B346019EDC44B34640085B
:101C40008B44C9075E460843614601960029D4D1FA
:101C50008027D03109063F058F61002B00D1DAE1E2
:101C6000C046013B002BFBD180270122D0331B064D
:101C700059683F055F61890E0A40616849084B1E3B
:101C8000012903D0C046013B002BFBD1019B072754
:101C90005A4001231A40524217409C46B8464B46D0
:101CA000E044002B00D01860217E00291BD0D026F4
:101CB000802036060005B06162685208531E012A72
:101CC00000D1B6E1C046013B002BFBD170616268D8
:101CD0005208531E012A03D0C046013B002BFBD102
:101CE00001390029E7D1002200211A2000F09CFBD5
:101CF000D02380221B06D2045A629A612B0600D59B
:101D00009BE1217B002900D15CE7D0208023802546
:101D10000006DB0483612D05856162685208531E4D
:101D2000012A00D183E1C046013B002BFBD1456174
:101D300062685208531E012A03D0C046013B002BA3
:101D4000FBD101390029E7D13CE7464679687E613D
:101D50005646890E31406CE70121536850619B0E55
:101D60001940D02380221B0612059A61D0238020BF
:101D700001271B065A680005920E58611740D023B0
:101D800080221B06120578009A6180231B059C4661
:101D9000D027012366463F067A687E61920E1A407C
:101DA00094E563685B08013B2DE55161D0238022F7
:101DB0001B06D2049A61802212059A61D0238022E8
:101DC0001B0612055A61D02380221B06D2045A61D9
:101DD000802212059A61D02380221B0612055A61C7
:101DE000E6E451617FE4516156E45161FFF72CFC58
:101DF0005161FFF702FC217E00291BD0D0268020F4
:101E000036060005B06162685208531E012A00D1EF
:101E100011E1C046013B002BFBD1706162685208A2
:101E2000531E012A03D0C046013B002BFBD10139D0
:101E30000029E7D1002200211A2000F0F5FAD02075
:101E400080230006DB044362984683614B46196891
:101E500080231B059C460123202699466268520870
:101E60004B460B4243D04346436163468361531E56
:101E7000012A43D0C046013B002BFBD1634643619E
:101E800062685208531E012A06D0C046013B002B4F
:101E9000FBD162685208531E013E8A444908002E55
:101EA000DED15246D20700D5AFE0D0228021120603
:101EB000C9049161D0228021120609059161002B8D
:101EC00000D1F2E0C046013B002BFBD1D0218020A5
:101ED0006268090652080005531E4861012A03D0B2
:101EE000C046013B002BFBD10123984606E7434641
:101EF000836163468361531E012ABBD167464761F4
:101F0000CAE7237E002B0AD0B861C046C046C0464F
:101F10007861C046C046C046013B002BF4D1002288
:101F200000211A2000F080FA8027D0224B46802022
:101F30001206FF0457629761202101261B680005E5
:101F40000DE057619061C046C046C0465061C04632
:101F5000C046C046013998445B08002903D01E42A0
:101F6000EFD19761EEE74346DB0748D4D0238022C8
:101F70001B06D2049A61D02380221B0612059A61A7
:101F8000C046C046C0465A61C046C046C04601234E
:101F90009846FFE5D026802036060005B0616268CD
:101FA00021215208531E012A17D0C046013B002BA5
:101FB000FBD1706162685208531E012A03D0C046EB
:101FC000013B002BFBD10139002900D13AE5B0617A
:101FD00062685208531E012AE7D101397061002955
:101FE000F5D12FE52123B861C046C046C0467861CF
:101FF000C046C046C046013B002BF4D1E3E4D023E9
:1020000080221B06D2045A61B5E7D0228021120635
:10201000C90451614EE701224B684F619B0E1A4083
:1020200034E601394561002900D03DE554E54561BC
:1020300087E6706154E67061F9E601F057F800290F
:1020400035DB28D0FA220023920003F025F9FA218B
:10205000890003F0DFF84201121A93019B1ADB009A
:102060001B189B01A3604CE601F040F800291EDB21
:1020700016D0FA220023920003F00EF9FA2189000B
:1020800003F0C8F84201121A93019B1ADB001B18D7
:102090009B01A36081E5FA21890003F0BBF8D6E734
:1020A000FA21890003F0B6F8E8E751611CE73F2107
:1020B000024A0348034B01F04FFBC046F890001062
:1020C000EC8F0010D08F001070B50C4804F0E8F8C9
:1020D000002203E037300A49885401320F2A0BDC12
:1020E000D30F9B185B10054CE15C08090D01E5540A
:1020F0009F29EFD83030EEE770BDC046F4110020C4
:1021000000120020024BFA2292001A607047C0466B
:1021100020040020014BFA221A607047200400209E
:10212000014B024A1A60704720040020C4090000D5
:10213000024BFA2292001A607047C0462004002029
:102140000020704770B5180004AB1B881A1C402B88
:1021500000D9402294B2054D2900FEF7C7FFE3B233
:102160002A000021002006F077F870BD400600200C
:1021700010B51B4B1B68002B00D110BD00F0B6FF43
:1021800000291CDB21D0FA229200002303F084F8FE
:10219000144B1B68C01A124A12689042EDD39B1868
:1021A000104A1360104B1B78002B13D0D02212065C
:1021B00010215161012253400B4A1370DDE70B4B94
:1021C0000B4A3F210B4801F0C7FAFA21890003F0BE
:1021D00021F8DDE7D022120610219161EAE7C0461E
:1021E00020040020E011002017120020D08F0010E2
:1021F00010910010EC8F001010B5042000F02EF9A3
:10220000D0231B0610225A62FFF75EFF06F096FAF3
:10221000FEF78EFF05F0EAFAFFF7AAFFFAE70000E3
:1022200000487047B891001000487047CC910010EA
:10223000004870474C91001070B500280DD003285D
:1022400024D88000124BC558280006F051FEC0B2B9
:102250001F2800D91F2000230EE00D4B19680D48E0
:102260000222023003F0DAFE012007E05A1CEC5C87
:102270005100084BCC52D3B29842F7D801304000FD
:10228000C0239B0003430348038070BD0020FCE78C
:1022900024040020F007002000B583B005E00122EF
:1022A0006B46D91D002005F091FD0D4B9B69102157
:1022B0000A001A4019420DD16B46D91D002AEED1F1
:1022C000074B9B69DB06FBD4054B1B680B70013287
:1022D0000131F3E7002005F015FD03B000BDC04655
:1022E0000080034030B593B0002302933C220021CC
:1022F00003A803F08DFE402202A9002005F0EEFCA9
:10230000002302A815E06B46DA1D1470002108E0D6
:102310001E4B9B699B06FBD414781C4B1C6001313F
:1023200001320029F4D003780D3B5A425341DBB20D
:1023300001300478002C27D0002BE4D1144B02226A
:102340009B5EA3420FD06B46DA1D1470002100295A
:10235000E9D10E4B9B699B06FBD414780B4B1C6098
:1023600001310132F3E76B46DA1D0D2313700021B2
:102370000029E8D1054B9B699B06FBD41578034BDC
:102380001D6001310132F3E713B030BD008003401E
:10239000FC11002010B582B06946002005F08EFCCB
:1023A000104C0099200000F037F90221152000F0B0
:1023B00023F80221142000F01FF80B49152001F02A
:1023C000FFFB0121152001F0EBFB5023A363636B9E
:1023D00038221A40054980235B010B431A6002B082
:1023E00010BDC04600800340992200103480034095
:1023F00010B5FFF7CFFF10BD10B58300084A944613
:1024000063441C6840226240C02414408022520170
:1024100013431C60C000034B9C466044416010BDE8
:1024200004C001400040014080000B4B9C466044CA
:1024300000290DD00823002A0CD00422134302687F
:1024400053400C2213408022520110430360704716
:102450000023F0E70022F1E704C0014010B501239A
:102460008340D0221206936293610521FFF7C4FFD7
:1024700010BD0000EFF3108072B6034B1B68002BF9
:10248000FBD0BFF35F8F70472C0100D0BFF35F8F8D
:10249000024B00221A6080F3108870472C0100D094
:1024A000F8B506000C001500FFF7E4FFE308F71885
:1024B000F15C07222240012393400B4205D1DBB29D
:1024C0000B433B70FFF7E2FFF8BD2100280001F04D
:1024D000DDF9F0B583B00600019114001F00FFF78D
:1024E000C9FF00E00134BC420CD8E308F518F35CE6
:1024F0000721214001228A401A42F3D1D2B21A4365
:102500002A7001E001246442FFF7C0FF002C02DBC7
:10251000200003B0F0BD019B002BF9D0089801F01A
:10252000B5F90000034B1B6802201840431E984178
:10253000C0B2704700C00640002307E0054A9A1861
:102540009200BFF35F8F0021116001331F2BF5D97B
:102550007047C04640000034054A1078431CDBB287
:102560001370172B02D9130010221A707047C0463F
:102570003404002000B583B00100044B00931F23F6
:1025800018220348FFF7A5FF03B000BDF09100102B
:10259000300B002070B504000D00062001F090FA09
:1025A000C000290002F036FEC60908D00E4B9E423C
:1025B00017D87F23184001303500460800E0012578
:1025C0006562A6622C3480208001044300232360CE
:1025D000062001F075FA8000A901891902F01AFE9F
:1025E00070BD0026014DEBE7FEFF0000FFFF00007D
:1025F000002909D00A22064B9C46604443425841B8
:102600004000044BC252704780225200F3E7C0469C
:102610000080FCBFFC11002070B505000C000620F6
:1026200001F04EFA002829D0164B9D4227D0802277
:10263000D203154B1A60154B1A60154B9B6811009D
:102640009943FAD100212800FFF7D2FF210028008A
:10265000FFF7A0FF2C002C34E96A60224A406E216B
:10266000114080225201224311600A4B2B638023C8
:102670009B01234310221A600323AB6470BD8022A8
:102680001204D6E70080034000E0004000F0004064
:1026900000C000400103000070B505000C000800F8
:1026A00000F018FD200000F0E9FD0849200000F0CE
:1026B00029FDFFF751FF064B9C466044800068608F
:1026C0002C75A400034BE55070BDC046DD290010F9
:1026D00040000034C00F00200A4B1A68EFF310814D
:1026E00072B61368002BFCD0BFF35F8F054B1B68DD
:1026F000BFF35F8F00221A6081F3108840BF002073
:1027000000217047DC11002010B5002922D0036899
:102710001B7B99421ED8174B9C4661440901836874
:102720009C4661440C684968002A19D003681B7BE9
:102730009A4215D883680F488446624412019A1859
:1027400010685368020001208B4201D80ED000208F
:10275000C0B210BD084B094A3B21094800F0FCFFFC
:10276000054B064A3B21064800F0F6FFA242EFD88F
:10277000EDE7C046FFFFFF0F58920010689400106D
:102780002092001010B500291ED0037B99421BD85F
:102790004B005B18033B0468A4466344002919D02E
:1027A000002A1DD0914221D0002A25D0047BA242CC
:1027B00022D80468500080180338201881701978D6
:1027C00000291FD11A7010BD104B114A6921114800
:1027D00000F0C2FF104B114A70310E4800F0BCFFF0
:1027E0000F4B0E4A71210B4800F0B6FF0D4B0B4A00
:1027F0007221084800F0B0FF044B054A69210548E2
:1028000000F0AAFF41701A70DDE7C0468C920010FC
:10281000D4940010A8920010F4920010B09400100C
:10282000009300100C93001070B506000D0014000A
:10283000002914D0002A14D08068736898470028B3
:1028400006D0220029003000FFF79CFF280007E097
:102850002A0021003000FFF795FF200000E0100063
:1028600070BD0800FCE70000F0B583B005000092E1
:1028700001930AAB1C780BAB1F78002C26D00368A1
:102880005A7B944207D10123002B19D1002C3BD154
:10289000200003B0F0BD002C0CD01A7B944209D864
:1028A0001A6863001B19033BD3189B78002BEBD0ED
:1028B0000123E9E73E4B3F4A69213F4800F04CFFC6
:1028C0003E4B3F4A65213F4800F046FF03689C7B32
:1028D000002CDBD012D01A7B94420FD86200121960
:1028E000033A19688C46624451789973002900D1E3
:1028F000D9730023937053701370C7E72C4B2D4A84
:1029000069212D4800F028FF002C3AD02B681B7B52
:102910009C4236D82C4BE3181B01AA6894466344AA
:10292000009A1A60019A5A60089A9A60099ADA60C5
:102930002E68002C2BD030D0337B9C422DD86300E6
:102940001B19033B32689446634400229A705A7004
:102950001A70717B22003000FFF766FF70738442AB
:1029600000D095E7287D009A019B00F013FC061E1D
:1029700001D0002F17D00C9B002B00D188E71E70D0
:1029800086E7124B124A3B210E4800F0E5FE114B40
:10299000114AA621084800F0DFFE054B054A6921CF
:1029A000054800F0D9FE2868210000F053FEE2E758
:1029B0008C920010D4940010A89200102493001060
:1029C000E094001020920010FFFFFF0F58920010BB
:1029D000689400101C920010C4940010F0B5DE46FC
:1029E00057464E464546E0B58BB009900023089304
:1029F0008200B24BD658370032E0B14BB14A3F218A
:102A0000B14800F0A9FEB14BB14A3B21B14800F0FA
:102A1000A3FEB14BB14A8C21AE4800F09DFEB04BF5
:102A2000AE4A9021AB4800F097FEA84BAD4A40213A
:102A3000A84800F091FE2A686B68099800F0AAFB8C
:102A400000239A4698467B68BFF35F8F00221A6086
:102A500086F310884346002B51D1002800D126E18F
:102A600000F044FB02000B1EC7DB00200021069093
:102A700007917868EFF3108672B601680029FCD0E0
:102A8000BFF35F8F396888464C7B002C32D0BAD0B8
:102A9000097B8C42B7D8944965182D01B9688C46DA
:102AA000654428686968801A99410029C3DC01D10E
:102AB0000028C0D10021404600F0C2FDA042A8D1AC
:102AC0002A686B6806920793AB689846EB689A464B
:102AD0004346002BA3D0002CA7D03B681B7B9C4215
:102AE000A3D8631EFA68D35C08931B0218433861AD
:102AF0000020A8E700239A4698460020A3E7089BF9
:102B00001B022343994651461800C04705000E009A
:102B10007A68EFF3108B72B6136859424B41D9B201
:102B2000002BF9D1BFF35F8F002E26DB002E52DD84
:102B30003B69002B53D04B4572D100F0D7FA02000D
:102B40000B1E73DB0100180052197341984202D822
:102B500004D1914202D901225242D317002B6BDBE0
:102B600000210491013103910294514601914146A3
:102B700000913800FFF778FE49E03B69002BD5D083
:102B80004B451CD1069A079B10001900521BB341FC
:102B9000994202D804D1904202D901225242D3175D
:102BA000002B12DB00210491013103910294514664
:102BB0000191414600913800FFF756FE27E04B4B4C
:102BC000464A9F21434800F0C7FD3D4B3D4A3F2107
:102BD0003D4800F0C1FD002E01D1002DA8D13A687A
:102BE000002C45D0537B9C422CD1012100293FD1A0
:102BF000D37B002B42D1D473002C52D03B681B7B7B
:102C00009C424ED8FA68013C135D013313550023F2
:102C10003B617A68BFF35F8F13608BF310881FE707
:102C2000324B2E4AA2212B4800F096FD244B254A18
:102C30003F21254800F090FD214B224A3F212248A8
:102C400000F08AFD002C0DD0137B9C420AD8630053
:102C50001B19033B1068844663449B78002BC5D046
:102C60000121C3E7224B234A6921234800F074FD68
:102C7000224B234AF721204800F06EFD002B0AD09A
:102C8000117B8B4207D85900CB18033B11688C4647
:102C900063445C70AFE7164B164A6921164800F092
:102CA0005BFD0A4B0F4A40210A4800F055FD0BB06E
:102CB000F0BCBB46B246A946A046F0BDC00F0020FE
:102CC000D08F001034940010EC8F00105892001038
:102CD00068940010209200104C9300104C94001047
:102CE000649300108C940010FFFFFF0F709300108E
:102CF0008C920010D4940010A8920010AC93001095
:102D0000A094001010B50A4B5B68002B04D00A2178
:102D1000084800F0D3FA10BD054C2300064A1021E4
:102D2000206800F0ADFB03212000FFF7B5FCEEE7C3
:102D300038040020DC1100200927001010B5064BD4
:102D40005B68002B01D0044810BD044B044A5C2191
:102D5000044800F001FDC04638040020D093001064
:102D60007494001020920010F0B5DE4657464E468F
:102D70004546E0B58BB0804616001F00149B9A466E
:102D8000159B994616AB1B789B461F2302AA9446B7
:102D9000634400221A7032E0002809D042461268CB
:102DA000127B904204D8421E4146C9688A5C48E0C2
:102DB000434B444A4021444800F0CEFC0798002B86
:102DC00075D05B46002B72D04946D04704000D00F9
:102DD00003000B4300D171E0002946DB00F086F9C7
:102DE00006000F1E55DB36196F41B94202D804D1D7
:102DF000B04202D901267642F717002F4FDB434637
:102E00005A68EFF3108472B6136859424B41D9B235
:102E10000791002BF8D1BFF35F8F1F3302AA9446AE
:102E2000634404930023039302934B460193534658
:102E3000009332003B004046FFF716FD031EABD166
:102E4000020041464968BFF35F8F00250D6084F39F
:102E50001088002B29D01F2302A98C4663441B78BD
:102E6000002BABD112021043A9E732003B00361B06
:102E7000AF41BB4202D804D1B24202D90126764208
:102E8000F717002FBBDA114B114A3F21114800F010
:102E900063FC0E4B0E4A3F210E4800F05DFC0B4BCD
:102EA0000B4A3F210B4800F057FC012040420BB079
:102EB000F0BCBB46B246A946A046F0BD0798F6E76F
:102EC000589200108C94001020920010D08F0010A7
:102ED00034940010EC8F0010F8B504004268EFF352
:102EE000108572B6136858424341D8B2002BF9D10D
:102EF000BFF35F8FCBB22268567BB3421BD1012058
:102F0000002848D0206988422BD0090AC9B2002B7A
:102F10002ED02068007B83422AD8581EE668305C99
:102F200088422BD000206368BFF35F8F00221A60B5
:102F300085F31088F8BD002B0DD0167BB3420AD85C
:102F40005E00F618033E1768BC466644B678002E4D
:102F5000D6D00120D4E7134B134A6921134800F05F
:102F6000FBFB8521124B134A4900134800F0F4FB88
:102F7000124B134A4021104800F0EEFB19001000DC
:102F800000F068FB0028CED112210E4B094AFF3118
:102F9000094800F0E1FB23698B42C4D1002323617F
:102FA000C1E7C0468C920010D4940010A892001083
:102FB000F49300101C9400102092001058920010FE
:102FC0008C9400101894001070B584B006000C00AA
:102FD000FFF7B4FE002302930193194B00933200D4
:102FE0002300FFF7C1FE051E11DD20BFFFF7A6FE7F
:102FF0002900FFF771FF134B5B6A9C421BD8114AF3
:10300000926AB2421AD29C4213D0012014E00D4BB6
:103010005B6A9C4209D80B4A926AB24207D29C4230
:1030200001D0012008E0002006E0002004E001209B
:1030300002E0002000E0002004B070BD0120FBE7AA
:10304000D92600100040054070B5EFF305833F20FE
:1030500018401038EFF3108C72B6194B1B68002B18
:10306000FBD0BFF35F8F012319008140154A5163E4
:10307000154A12781400C440234214D0114B5C6AE4
:103080008300124D5B599C4206D38300104C1B59A0
:103090008A430D490A7007E00A4A031D9B009958AC
:1030A0009950002300E00023BFF35F8F044A002102
:1030B00011608CF31088002B00D0984770BDC0467B
:1030C000280100D00040054018120020E411002023
:1030D000200A002010B50100024A0348FFF7E0F97A
:1030E00010BDC046F894001015120020044B5B6A16
:1030F000034A906A1900536A9942F9D17047C04651
:103100000040054070B504000D00EFF3108672B664
:103110001B4B1B68002BFBD0BFF35F8F002D1CD017
:10312000200000F045FD174B83420BD01900200012
:1031300000F046FD0121200000F032FD0123A340F4
:10314000114A1360A400114BE550BFF35F8F0C4B85
:1031500000221A6086F3108870BDA2000B4B00217C
:10316000D1500122A2400A490B7893430B700549C4
:10317000200000F04FFD0021200000F011FDE4E7E9
:10318000280100D04930001038600540200A002096
:1031900018120020F0B5DE4600B584B0040015001A
:1031A00001921E000293FFF7A1FF03958E4202D801
:1031B0004ED185424CD9EFF3108B72B6274B1B686A
:1031C000002BFBD0BFF35F8F254A17780125A54060
:1031D000EBB23B431370234B5D63221D92000199B8
:1031E000D150A2002049029850501B6A2B4212D1A4
:1031F0001C4B1B6C2B4208D00020BFF35F8F174B7A
:1032000000221A608BF3108823E0184B184AC12162
:10321000184800F0A1FAFFF769FF8E4214D802D1D6
:10322000039B834210D80E4B1B78BB420ED00D4B34
:103230001D625D631F2004400123A3400E4A1360FA
:10324000074B1F701E38D8E70020D6E70120D4E7CF
:10325000012004B080BCBB46F0BDC046280100D0B0
:103260001812002000400540E41100201C950010B9
:10327000849500104095001080E200E0EFF3108C80
:1032800072B60B4B1B68002BFBD0BFF35F8F012383
:103290008340084A136208490A789A430A70BFF3C8
:1032A0005F8F034B00221A608CF310887047C04672
:1032B000280100D00040054018120020024B9C4617
:1032C00061448900016070474000003410B504007B
:1032D000FFF742F901002000FFF7F0FFFF23237101
:1032E000BFF35F8F10BD10B50400FFF735F9010083
:1032F0002000FFF7E3FFFF23237100236371BFF377
:103300005F8F10BD034B9C46614489000160BFF391
:103310005F8F70474000003410B504000120FFF7B4
:1033200029F901002000FFF7EDFF10BD10B50029BD
:103330001ED0037B99421BD84B005B18033B0468EB
:10334000A4466344002919D0002A1DD0914221D0FF
:10335000002A25D0047BA24222D80468500080189D
:10336000033820188170197800291FD11A7010BDF8
:10337000104B114A6921114800F0EEF9104B114A27
:1033800070310E4800F0E8F90F4B0E4A71210B48DE
:1033900000F0E2F90D4B0B4A7221084800F0DCF90D
:1033A000044B054A6921054800F0D6F941701A70AE
:1033B000DDE7C0468C92001064970010A8920010C0
:1033C000F492001050970010009300100C9300101E
:1033D00070B506000D001400002914D0002A14D086
:1033E000806873689847002806D0220029003000C2
:1033F000FFF79CFF280007E02A0021003000FFF7BC
:1034000095FF200000E0100070BD0800FCE7000000
:1034100010B50023437301338373037BC37301230C
:10342000027B9A4214D9002B0CD0027B934209D81C
:103430005A00D218033A01688C4662440133DBB269
:103440005370EDE70B4B0C4A69210C4800F084F9EE
:10345000002A09D0924207D8016853009A18033A0B
:103460008A180023537010BD024B034A6921034898
:1034700000F072F98C92001064970010A89200106E
:1034800010B5017342608360FFF7C2FF10BD0000FA
:1034900070B50400081E00D170BD002934D0237B14
:1034A000994231D84B005B18033B22689446634431
:1034B0005A78002AF0D02DD0237B9A422AD8530084
:1034C0009B18033B21688C4663445D78002159704A
:1034D000002825D0237B984222D843001B18033BA9
:1034E00021688C4663440021597001002000FFF7D9
:1034F0006FFF060029002000FFF7CAFF020031001D
:103500002000FFF765FFC7E7084B094A6921094812
:1035100000F022F9054B064A6921064800F01CF923
:10352000024B034A6921034800F016F98C920010FF
:1035300064970010A892001070B505000C001600EA
:10354000002928D02DD0037B99422AD84B005B1844
:10355000033B0268944663445A78002A27D19A783C
:10356000002A2AD11978FFF793FF0300002E03D019
:10357000EA7B002A27D1EC73002B37D1002C49D0ED
:103580002B7B9C4246D82B6861000C19033C1C190C
:103590000023637070BD224B224A3821224800F07C
:1035A000DBF8224B224A6921224800F0D5F8224B51
:1035B0001C4A3A211C4800F0CFF8204B194A3B2105
:1035C000194800F0C9F8002A0AD0297B8A4207D896
:1035D00051008A18033A29688C4662445470CAE73D
:1035E000124B134A6921134800F0B6F8002B0BD098
:1035F0002A7B934208D843001B18033B2A68944651
:10360000634400229A70B9E7084B094A69210948C6
:1036100000F0A2F8054B064A6921064800F09CF824
:103620006C9600103C970010749600108C9200105D
:1036300064970010A8920010B0960010D896001061
:1036400070B504000A00457B2900FFF775FF607321
:10365000280070BD70B50400002967D0437B8B4201
:103660000ED0002911D0037B99420ED84B005B1875
:10367000033B0268D0188378002B0CD1002056E061
:103680000121FFF7DDFF012051E0294B294A692183
:10369000294800F061F8002B20D0227B93421DD8EE
:1036A0005A00D318033B2268D2182568EB5C8B4282
:1036B0001AD0002B1BD0227B934218D85A00D31863
:1036C000033B2268D21853788B4216D0002BF0D1DE
:1036D0001A4B1B4A67211B4800F03EF8144B154A51
:1036E0006921154800F038F84378137007E0104B53
:1036F000104A6921104800F02FF8437853700023D6
:103700008370437001222000FFF716FF0200617BE7
:10371000814205D02000FFF75BFE6073012006E0C8
:10372000094B074A6D21074800F016F8002070BDCC
:103730008C92001064970010A8920010FC96001064
:1037400024970010749600100497001000BEFDE747
:1037500010B5FFF7FBFF000010B582B00C00190098
:10376000002A0CD0084B002A0BD0019200932300B2
:103770000200064802F080FD0120FFF7E7FF044B3E
:10378000F1E7034AF1E7C0467097001080970010F8
:1037900084A5001070B52B4B2B4A1A602B4B2C4A7A
:1037A0001A602C4B9A682A4B9343FAD12A4C01E0B9
:1037B00008CC9847294B9C42FAD300F001F9234BDF
:1037C000274A1A60234B9B68DB43DB01FAD1254B68
:1037D00040229A675A671A67DA66234C09E0234B3E
:1037E000234A83212348FFF7B7FF2000FFF76EFD30
:1037F0000834214B9C4209D22368002BF5D0012BC1
:10380000EDD12000FFF76FFD0834F2E71B4CA168F3
:103810001B4DC022280002F001FCA560FCF723FD2F
:10382000002800D000BEFEF787FE00F041FBFFF746
:1038300069FA144C01E008CC9847134B9C42FAD328
:1038400070BDC04600E00040BFCDFBFE00F0004070
:10385000FE7F3C0000C0004004050020140500204D
:10386000FFFFFF0100F00140FC040020B0970010B2
:1038700028980010D09700100405002000ED00E00B
:103880000000002014050020200500200FB400B522
:1038900083B0084802F0BEFC049B002B07D005A9AA
:1038A0000191180002F0C6FC034802F0B3FC0120AD
:1038B000FFF74CFF1498001024980010F8B5DE466E
:1038C00057464E464546E0B505000F0092460A9A17
:1038D00093424ED31A0E91461E020A9A00233000DC
:1038E000494601F0D9FC80466C006419A4002F4BB6
:1038F0009C4664446368834200D260602B1FDBB245
:103900009B46012B3BD9C0239B01234380221201FC
:103910001A60AB00264A9958002905D0506901F079
:1039200079FC01300138FDD153465A0123685A40D1
:10393000E0231A4080235B0123431A605A46012A80
:1039400028D980239B012343802212011A60434619
:103950006360424600233000494601F09DFCAD0003
:10396000134B58510120F0BCBB46B246A946A046B5
:10397000F8BD104B104A2D211048FFF7EDFE012F26
:10398000C1D1C0239B01234303221A60A368DB0734
:10399000FCD5C9E72168794003220A401A60A26871
:1039A0000123BB401342FAD0CBE7C0460080004061
:1039B000340B002038980010909800104C9800109C
:1039C00030B583B00C2000F00DFBFEF7ABFD0028F6
:1039D0000DD0002304E099002D4A2E488850013371
:1039E000092BF8D92A4B2C4A5A6203B030BD2B4B15
:1039F00000229A6700F0FEFA294B01221A60274B39
:103A00005B6C012BFBD1274B03221A60234B9B6B72
:103A1000012BFBD1022400940533234A01212348C2
:103A200000F054FA00940523214A0121214800F0B6
:103A30004DFA214B0093002202210420FFF73EFFA4
:103A40001E4D00952B00002201210520FFF736FFB7
:103A5000104C00942300002200210720FFF72EFFC6
:103A600000942300002200210820FFF727FF0A4BC3
:103A700000932300002200210920FFF71FFF00957B
:103A80002B00002200210620FFF718FFADE7C046FB
:103A9000340B0020006CDC021BB7000000800040EB
:103AA0003CB0004030B00040002F68590080024018
:103AB00000389C1C00C00240001BB700405973072F
:103AC0008000014BC0587047340B0020074B9B68A7
:103AD000103080001950BFF35F8FBFF35F8F044B2E
:103AE0000021196082F310887047C04600ED00E0A5
:103AF000240100D010B5091A04394808090B05D172
:103B00004005400D044B184380B210BD034B044ADE
:103B10008B210448FFF720FE00E0FFFFA098001073
:103B2000AC9A0010B098001010B5091A04394C086E
:103B3000090B08D14905490D064A11430180064B7E
:103B40002343438010BD054B054A93210548FFF7E9
:103B500003FEC04600F0FFFF00F8FFFFA098001032
:103B6000809A0010B098001001238340034A106827
:103B70001840431E9841C0B27047C04600E100E0C3
:103B8000002904D0034B1860034B18607047034BA7
:103B90001860FBE780E200E000E100E080E100E087
:103BA00010B5012383401800FFF7EAFF10BD0000A5
:103BB000024B9B6810308000C058704700ED00E059
:103BC00070B504000D00EFF3108672B60C4B1B6845
:103BD000002BFBD0BFF35F8F2000FFF7E9FF094BFD
:103BE000984201D0A84205D1320029002000FFF7F9
:103BF0006DFF70BD044B054A6E210548FFF7ACFD13
:103C0000240100D0CD010010F0980010C89A0010D7
:103C1000B0980010F0B5CE46474680B583B0060098
:103C20000D00EFF3108872B6574B1B68002BFBD0CA
:103C3000BFF35F8F554B9A6834001034A300D758F8
:103C4000534B9F4207D0AF4200D19BE00197514BAD
:103C5000FB1A2F2B09D9424639003000FFF736FFF7
:103C600003B0C0BCB946B046F0BD3000FFF77CFFE2
:103C7000814600213000FFF793FFBFF35F8FFCF711
:103C8000F2FA002801D0844219D10123019C9C43FF
:103C9000414923003F4A9B1A5B415943090D49B2F0
:103CA0000022A368AB4212D00622A256002A0DDBE6
:103CB00053009B189B002200364CE418F1E71E21AC
:103CC000364B374AFF313748FFF746FD2200AB42FB
:103CD00051D106256557002D39DB6B005B199A0021
:103CE0002C4B9B189A68A260DA79E27106229A56E8
:103CF000A2719B795BB2002B10DABD200002A0807C
:103D00006B005B199B00234AD318274A11789971DD
:103D1000157049463000FFF743FF9CE7201D6B00FC
:103D20005B199B001B4A9B181A1D9B88D90A1C29EA
:103D300007D15B055B15023359005118FFF7DAFE16
:103D4000DDE71A4B1A4A99211648FFF705FD0028AE
:103D50000CD1002A08D0FF239371164B9380124B8D
:103D60001A78A2711970D4E7094FF8E7201D12499B
:103D7000FFF7DAFECDE7A921104B094A49000948AF
:103D8000FFF7EAFC024F66E7240100D000ED00E0F7
:103D9000CD01001060040020AAAA0000049A0010BF
:103DA000989A0010B098001016120020EC9900109C
:103DB000B89A001000BDFFFF9A040020289A001056
:103DC00070B50400012606432D4BF31A2F2B28D87B
:103DD000FCF749FA00282BD0EFF3108C72B6294B70
:103DE0001B68002BFBD0BFF35F8F274D22002449B7
:103DF000521A524155432D0D6DB2244B9B688000E1
:103E00001B58B3421BD00022032A32D853009B1800
:103E10009B001B49CB189B795BB2AB421FD0013290
:103E2000F2E778211A4B1B4AFF311B48FFF794FC3D
:103E3000BD211A4B174A49001748FFF78DFC134B59
:103E40009B68174A1A50174B1A78A2711D70BFF35E
:103E50005F8F0C4B00221A608CF3108870BD080035
:103E60005300991889004118FF268E710E4A8A80E6
:103E7000E9E78C210D4B074AFF310748FFF76CFC3F
:103E800060040020240100D0AAAA000000ED00E098
:103E9000309A0010649A0010B0980010589A0010E0
:103EA000CD0100101612002000BDFFFFFC9600108F
:103EB0000022044B02E0044902C30132072AFAD966
:103EC0007047C04600E400E080808080F0B5CE46B8
:103ED00000B504000E0091461F000C2001F09AF975
:103EE000050043011B1A9901C91AC9000918890163
:103EF000484601F08FF90200103A98235B009A427D
:103F000033D87B1E062B36D8069B013B062B32D8B6
:103F1000069B9F4235D34B461A09AA4237D33F042A
:103F2000069B1D032F432368002B36DB234B9C424B
:103F300041D080225201224B1A60224B1A60224B40
:103F40009B6811009943FAD12660A060231DC0220E
:103F500092011A43212313602368002BFCDAE760E7
:103F60000823136080BCB946F0BD184B184A1621CF
:103F70001848FFF7F1FB184B154A19211548FFF7B0
:103F8000EBFB164B124A1F211248FFF7E5FB144BBF
:103F90000F4A22210F48FFF7DFFB22683F2313401F
:103FA000B342C3D1A3681B051B0D8342BED1E36896
:103FB000002FBBD1D6E780229201BCE700C00240AF
:103FC00000E0004000F0004000C00040E49A001013
:103FD000C09B0010009B0010409B00108C9B0010A9
:103FE000A49B001080239B000343014AD3627047C7
:103FF00000800540064BAA2212011A602F22DA60C7
:10400000044B054A1A60024B5B68002BFBDA7047D1
:10401000004002400060024000B0FA00704710B556
:10402000002802D00B684968984710BD01000020A5
:1040300007E083001B185B00501C08601078C01854
:1040400030380A681378303BDBB2092BF1D970475E
:10405000F0B5DE4657464E464546E0B583B093463A
:104060001F000C9B9A460D9C0E9B99460F9B9B072D
:1040700003D0B8460F00060022E00192A34688460E
:104080004E46B9460700B44207D2551C4B4641463E
:104090002020B84701342A00F5E73D004F465C4632
:1040A000019B9B46B1464646B84637002E0007E0C6
:1040B000013C551C5346185D43463900B0472A0061
:1040C000002CF5D135003E0047460F9B9B0707D4D7
:1040D000100003B0F0BCBB46B246A946A046F0BDF6
:1040E000B0464E46B9462F005D46531BB342EFD251
:1040F000541C4B4641462020B8472200F5E7F0B556
:10410000CE46474680B585B0944698460C9D0D9C9A
:104110000EAB1B789946109A119B129EB7071CD4C0
:10412000002B0CD0F7070AD54F46002F02D10C37D1
:10413000374204D0013B02E030272F55013494422E
:1041400001D21F2CF8D9F70707D59C4205D21F2CA6
:1041500003D830272F550134F5E7F70615D5770535
:1041600005D4002C03D0944224D09C4222D00F9A34
:10417000102A2BD00F9A102A30D00F9A022A35D04D
:104180001F2C02D830222A5501341F2C05D84A464C
:10419000002A31D02D222A5501340396029301942E
:1041A000009543466246FFF753FF05B0C0BCB946D1
:1041B000B046F0BD621E012C06D00F9F102F01D01B
:1041C0001400D4E7023CD2E71400D0E7B206D1D401
:1041D0001F2CCFD878222A550134D1E7B206CCD58E
:1041E0001F2CCAD858222A550134C9E71F2CC7D81A
:1041F00060322A550134C3E7720703D52B222A55B2
:104200000134CAE73207C8D520222A550134C4E751
:10421000F0B5DE4657464E464546E0B593B081467A
:104220008A46089209931CAB10CB1B789B461E9DB7
:10423000219B9846002C03D1102342469A43904676
:104240008023DB0046461E4042461A4212D0002C14
:1042500022D000260EE03033D9B2771C0AAB995534
:104260002900200000F0D6FFAC4216D31F2F14D82F
:104270003E0004002900200000F0CCFFCBB2092B47
:10428000E9D94246920605D54121C918C9B20A3971
:10429000C9B2E2E76121F8E7270043460693209B75
:1042A00005931F9B049303955B46029301970AAB0A
:1042B0000093099B089A51464846FFF720FF13B028
:1042C000F0BCBB46B246A946A046F0BDF0B5DE46FE
:1042D00057464E464546E0B595B0089009910A927A
:1042E0000B931E9E1F9C20AB1B789B46229B9946DE
:1042F000239D269B9A463300234303D11033524615
:104300009A4392468023DB0057461F4052461A428A
:1043100019D0330023432DD0002714E03033DAB214
:104320007B1C98460CABDA554A462B003000210026
:1043300000F0B2FFA5421FD819D043461F2B1BD84F
:10434000474606000C004A462B003000210000F0D2
:10435000A3FFD3B2092BE1D95246920605D54122DB
:10436000D218D2B20A3AD2B2DAE76122F8E7B145FE
:10437000E3D901E00023984653460693259B059315
:10438000249B04934B4603935B460293434601935D
:104390000CAB00930B9B0A9A09990898FFF7AFFEA4
:1043A00015B0F0BCBB46B246A946A046F0BD000021
:1043B000F0B5DE4657464E464546E0B591B08346D9
:1043C0008A460C9298461A9C08941B9D09952200D7
:1043D0002B002000290001F0EEF9002800D0E5E0D4
:1043E00001225242D74B2000290001F0DFF90028BA
:1043F00000D0DBE001225242D34B2000290001F023
:10440000BFF9002800D0D1E000220023089D280039
:10441000099E310001F0B4F9002800D0DDE00898D1
:104420000999069007918023DB001E9A1A400D928D
:104430001E9A1A4201D106231C930698079904007C
:104440000D000A000600024300D1D1E0080D40052E
:10445000400DBE4CA44660440A03120BBC4B1343F0
:104460001F0001F0BBF9BB4ABB4B01F046F9BB4A48
:10447000BB4B01F01BF904000D000022B94B3000CA
:10448000390001F00AF9B84AB84B01F036F90200D8
:104490000B002000290001F009F901F0B7F981466D
:1044A00001F09CF904000D00B14AB24B01F025F96E
:1044B0000022B14B01F0FAF801F0A8F90600AF4A6A
:1044C000AF4B2000290001F018F904000D00300066
:1044D00001F084F9AB4AAC4B01F00FF902000B007C
:1044E0002000290001F0D9F804000D0002000B00A3
:1044F00001F003F90A900B91A44BF31800261F0555
:1045000022002B002000290001F0D0F80E900F911E
:1045100022002B0000208021C90501F0BEF8040014
:104520000D0000229A4B0A980B9901F0C8F800225E
:10453000984B01F0BBF802000B000A980B9901F0B0
:10454000BEF80022944B01F0B1F802000B000A986B
:104550000B9901F0B4F802000B002000290001F0D3
:10456000A5F802000B000E980F9901F0A8F80022A0
:10457000774B01F09BF832003B0001F0BEF80600DB
:104580000F0004000D00069A079B01F00FF90028A8
:1045900030D001235B429C46E14400227D4B300039
:1045A000390001F08CF804000D0023E01E9B0493F9
:1045B0001D9B03931C9B0293089A099B00920193F5
:1045C00043460C9A5146584600F0FCF811B0F0BC36
:1045D000BB46B246A946A046F0BD00230024069380
:1045E0000794069580231B069C46664407961AE7A7
:1045F000002399464B466333C62B1ED804261E9BC8
:104600001B0526D52B0023430FD0644A644B069824
:10461000079901F0C3F8002879D00022614B069871
:10462000079901F0ADF8002871D01C9B4B4506DDC1
:104630004A46981A431E1C9303E00526DFE7002331
:104640001C938023DB001E9A1A431E92002600232F
:1046500099461D9B9E4264D29F1B02231E9A1A40BC
:104660000A921E9A134202D0002E00D000274B4619
:10467000002B07D022002B000698079901F01FF8A5
:1046800006900791002200230898099901F078F814
:10469000002848D1444B1E9A1340049303971C9B57
:1046A0000293069B079C0093019443460C9A514643
:1046B000584600F087F8002E00D187E71E9B9B0626
:1046C0003DD54525441C4346020051462800D847A5
:1046D0004B46DA179B18534005220592013E04967B
:1046E000002203920A3202924A46D00F01900093B0
:1046F0004346220051465846FFF78AFD0A9B002B8D
:1047000000D163E702005F460C9E1D9D54E01C9B98
:10471000002B9ED00D9B002B9BD01C9B013B1C9320
:1047200097E7002799E7069C079D22002900802033
:104730000006844661440B0006920793AAE76525AC
:10474000C0E7C046FFFFEF7FFFFFEFFF01FCFFFF69
:104750000000F03FFB799F501344D33FB3C8608BF8
:10476000288AC63F0000F83F61436F63A787D23FA6
:1047700071A379094F930A400000E03F1655B5BB7D
:10478000B16B0240EF39FAFE422EE63FFF03000014
:1047900000002C4000002440000018402D431CEB7A
:1047A000E2361A3F80842E41FFF7FFFF541C434638
:1047B00051462020B8472200931BAB42F6D310008D
:1047C00004E7C046F0B5DE4657464E464546E0B5DE
:1047D00095B00690079193469946209F1E9A1F9B7D
:1047E0001000190000F0E7FF002831D101225242E9
:1047F000BF4B1E981F9900F0C3FF002837D101223C
:104800005242BC4B1E981F9900F0D0FF00283DD1AA
:104810000022B94B1E981F9900F0C8FF002850D104
:104820000022B64B1E981F9900F0AAFF002848D11D
:10483000002200231E981F9900F0A2FF002850D1EB
:1048400000239846229B5B0500D4B6E0002458E084
:10485000229B0393219B029303230193A84B009374
:104860004B465A4607990698FFF7F2FB0EE1229B4A
:104870000393219B029304230193A24B00934B4685
:104880005A4607990698FFF7E3FBFFE00423229AB4
:104890001A4022990B4210D09B4B002A0FD00422C1
:1048A0002299039121990291019200934B465A4615
:1048B00007990698FFF7CCFBE8E0944BEDE703225D
:1048C000EEE7229B0493219B039302971E9B1F9C60
:1048D000009301944B465A4607990698FFF768FDE6
:1048E000D4E01E9A1F9B0020002100F0D6FE1E90EF
:1048F0001F9101239846A5E70CAB30221A55013FC2
:1049000001341F2C01D8092FF6D81E981F9900F0EA
:104910007DFF050000F062FF02000B001E981F994A
:1049200000F0BBFEFA007A4B9B181A685B680A928B
:104930000B9300F0E2FE0890099100F08BFF060057
:1049400000F048FF02000B000898099900F0A5FE4E
:104950000890099100226F4B00F028FF00282ED00C
:104960000136300000F036FF02000B000A980B9968
:1049700000F00CFF002801D001350026002F2CD1BB
:10498000280000F02BFF02000B001E981F9900F07A
:1049900084FE06000F0000225E4B00F0F1FE0028AE
:1049A00046D100225B4B3000390000F0FFFE0028AA
:1049B0003ED1EB073CD501353AE0062746E7002219
:1049C000544B0898099900F0DBFE0028D6D1002E40
:1049D00001D0F307D2D50136D0E7AA461F2C11D853
:1049E000013F0A21300000F015FC651C30310CAB92
:1049F00019550A21300000F00DFC092E0ED90600D1
:104A00002C00EBE755461F2C0CD87B1E002F09D03D
:104A10000CAA302111551F000134F4E72B00554634
:104A20001C00F0E71F2C03D80CAB2E221A550134C2
:104A30001F2C10D80A21280000F0C4FB661C30315E
:104A40000CAB19550A21280000F0BCFB051E01D053
:104A50003400EDE734000323229A1340012B1CD0CD
:104A60001F2C06D84346002B32D00CAB2D221A55F2
:104A70000134229B0393219B029301940CAB00937E
:104A80004B465A4607990698FFF7E2FA15B0F0BC74
:104A9000BB46B246A946A046F0BD219B002B13D0D1
:104AA0004346002B02D10C3313420FD0219B013B14
:104AB0002193190003E00CAB30221A5501348C42CB
:104AC000CED21F2CF7D9CBE72199F8E72199F6E749
:104AD000229B5B0704D50CAB2B221A550134C8E787
:104AE000229B1B07C5D50CAB20221A550134C0E709
:104AF000FFFFEFFFFFFFEF7F65CDCD4165CDCDC15E
:104B0000D89B0010DC9B0010D09B0010CC9B0010A9
:104B1000C89D00100000E03FF0B5DE4657464E4607
:104B20004546E0B593B082468B46904611930029E6
:104B300000D1EBE200275546119B1878002800D1E0
:104B4000E7E2252809D07C1C43463A005946A8478D
:104B5000119B013311932700EEE7013311930024D9
:104B6000119A11780B00203BD8B2102803D883008B
:104B7000D048C3589F460B00303BDBB2092B2CD9E1
:104B80002A292FD000230A93119B1A782E2A39D074
:104B900000239A46119A1378683BD9B2122976D825
:104BA0008B00C549CB589F4601231C43013211920B
:104BB000D6E702231C4301321192D1E704231C43A0
:104BC00001321192CCE708231C4301321192C7E74E
:104BD00010231C4301321192C2E711A8FFF726FAF5
:104BE0000A90D1E71C9B1A1D1C921868002804DB50
:104BF0000A90119B01331193C6E702231C434342E1
:104C00000A93F6E78022D20014435A1C11925A7874
:104C10001300303BDBB2092B04D92A2A07D000232A
:104C20009A46B7E711A8FFF701FA8246B2E71C9B44
:104C30001A1D1C921868002804DB8246119B013360
:104C40001193A7E70020F8E780235B002343511C62
:104C5000119152786C2A01D01C0018E0C0239B00EF
:104C60001C430131119112E080232343511C119107
:104C70005278682A01D01C0009E0C0231C4301318E
:104C8000119104E080235B001C4301321192119BBF
:104C900018780300253BDAB2532A00D92CE293009E
:104CA000864AD3589F4680239B001C4301321192B1
:104CB000EDE780235B001C4301321192E7E778287F
:104CC00009D0582838D06F2838D0622838D010231F
:104CD0009C430A2600E01026582833D0692803D0C8
:104CE000642801D00C229443630501D5012294432A
:104CF00069282AD0642828D0A30500D59FE0E305C1
:104D000000D5B8E0630600D4CAE01C9A111D1C91BE
:104D10001168FF220A4005940A9B049353460393AB
:104D2000029600230193009243463A005946280018
:104D3000FFF76EFA070027E01026CDE70826CBE73D
:104D40000226C9E720221443C8E7A30520D4E305BF
:104D500050D4630666D51C9A111D1C911168FF2260
:104D60000A40D317D118594005940A9B049353461F
:104D700003930296D20F0192009143463A0059469E
:104D80002800FFF745FA0700119B01331193D3E682
:104D90001C9BDA1D07218A43110008311C91116800
:104DA00053689C46DB170C930D930C9A0D9B1000D7
:104DB00048400E90624653400F930E980F990C9AFC
:104DC0000D9B801A99410E900F9108940A9B0793AE
:104DD000534606930496002305936346DA0F029226
:104DE0000090019143463A0059462800FFF76EFAB9
:104DF0000700C9E71C9A111D1C911268D317D1181E
:104E0000594005940A9B0493534603930296D20F8C
:104E10000192009143463A0059462800FFF7F8F9FD
:104E20000700B1E7230605D51C9A111D1C9100232C
:104E3000D25E96E71C9A111D1C91126891E71C9B8B
:104E4000DA1D07218A43110008311C9108940A9B3E
:104E50000793534606930496002305930293136821
:104E600054680093019443463A0059462800FFF7DE
:104E70002DFA070088E71C9A111D1C9105940A9BC6
:104E800004935346039302960023019313680093FF
:104E900043463A0059462800FFF7BAF9070073E77E
:104EA00023060DD51C9A111D1C9112681204120CB8
:104EB00031E7C046E49B0010289C0010749C001051
:104EC0001C9A111D1C91126825E746281AD01C9BBC
:104ED0000733072293431A0008321C9204940A9A5B
:104EE0000392524602925C681B6800930194434609
:104EF0003A0059462800FFF765FC0700119B013373
:104F0000119319E620231C43E1E7672801D04728C5
:104F100002D180231B011C43452801D0472801D121
:104F200020231C431C9B0733072293431A0008329B
:104F30001C9204940A9A0392524602925C681B687F
:104F40000093019443463A0059462800FFF730FA8F
:104F50000700119B01331193EEE502231A00224052
:104F6000924623421FD001241C9B1A1D1C927A1CBE
:104F70009146187843463A005946A8475346002BB5
:104F800016D1119B013311934F46D5E5561C43466C
:104F900059462020B847230032005C1C9D42F5D8BA
:104FA0003D001700E0E701233A002F000A9DF4E7D7
:104FB0004A46A9460A9D06E0571C4346594620200A
:104FC000C84734003A00661CA542F5D84D469146C4
:104FD000D7E71C9B1A1D1C921B6899465346002B51
:104FE00000D1013B4E4601E0013613003278002A21
:104FF00002D05A1E002BF7D14B46F21A1092802392
:10500000DB0026001E401C4203D0524501D9534606
:10501000109302231A0022400B92234205D03A003B
:1050200037004C46A946554620E03A00109B5F46A3
:10503000B3462E0006E0551C434639002020B047F9
:1050400023002A005C1C0A999942F4D835005E4678
:10505000BB46109437004C46A946554606E01D0055
:105060000134561C43465946C84732002078002870
:1050700004D0002FF4D06B1E002DF0D117004D4648
:105080000B9B002B03D1119B0133119354E50A9F15
:10509000109B06E0561C434659462020A847230093
:1050A00032005C1C9F42F5D81700ECE721231C431B
:1050B0001C9B1A1D1C921B680093059408230493E3
:1050C00053460393102302930023019343463A006F
:1050D00059462800FFF79CF80700119B01331193F4
:1050E0002AE57C1C43463A0059462520A847119BD7
:1050F0000133119327001FE57C1C43463A005946B3
:10510000A847119B01331193270015E50A4B9A46D6
:1051100010E5AA46474502D343465A1E00E03A002E
:10512000434659460020D047380013B0F0BCBB4678
:10513000B246A946A046F0BD1D40001000B585B09E
:10514000029003910121009313004A4202A90248F0
:10515000FFF7E2FC05B000BD1F400010014804212C
:10516000014B1847B00400208D51001010B501000C
:1051700018231B8814221088984710BD10B5010011
:1051800018231B8816221088984710BDF0B5C64614
:1051900000B507000E0000250123984600E0013508
:1051A000B5420AD2AC003C192068FFF7DFFF20604F
:1051B0000028F4D100239846F1E7404680BCB84669
:1051C000F0BD0000124A936F9B0815D29066D1661D
:1051D000002905D0FFE7FFE7FFE7516F106F704729
:1051E00004B580210906C2175140002800D0C843E9
:1051F00003F0C6FE002104BDF0B5146E556E576F66
:10520000166FFFF7E3FF1466556657671667F0BD24
:10521000000000D0114A936F9B0813D210665166AC
:10522000002905D0FFE7FFE7FFE7516F106F7047D8
:1052300004B5002801D00020C04303F0A1FE0021E6
:1052400004BDC046F0B5146E556E576F166FFFF76C
:10525000E5FF1466556657671667F0BD000000D07D
:1052600094464E4A926F9208624601D230E0C046A0
:10527000F0B54A4EB56F6D08FCD3346E756E776F1E
:10528000366F00F025F89446444A14665566576711
:1052900016676246F0BDC0469446404A926F920837
:1052A000624601D258E0C046F0B53C4EB56F6D087D
:1052B000FCD3346E756E776F366F00F04DF8944600
:1052C000364A14665566576716676246F0BDC04693
:1052D000002B24DB11D000293EDA00B5C94340423F
:1052E00000D1013100F038F8C943404200D101310A
:1052F000DB43524200D1013300BD002AEBD100282C
:1053000001D1002905D00020C90FC90701D1C04330
:10531000410800B503F02CFE0022002300BD00B5BB
:1053200000290ADBDB43524200D1013300F014F8BC
:10533000C943404200D1013100BDC943404200D1C0
:105340000131DB43524200D1013300F005F8DB4369
:10535000524200D1013300BD002923D1002B18D1C6
:10536000002A0CD0BC460D4F38667A660021002317
:10537000FFE7FFE7FFE77A6F386F6746704700285F
:1053800001D00748010000B503F0F2FD0022002320
:1053900000BD02000B00002000217047000000D07B
:1053A000FFFFFFFF002B00D0BFE0130C28D1002A25
:1053B000E7D080B4114F39667A66FFE7FFE730B473
:1053C000040C7B6F396F1B0423433B667A66FFE74F
:1053D000FFE7FFE7C04684B27B6F3D6F1B042343AA
:1053E0003B667A66FFE7FFE7C04600232C042D0CDE
:1053F0007A6F386F00196941B0BC7047000000D067
:10540000F0B594460025140E01D112020835140F90
:1054100001D112010435940F01D192000235D40F4D
:1054200001D152000135D40B0134254F7C66254C47
:105430003C660E0C93B2FFE7FFE7FFE73C6F664365
:10544000360C7703BE467343DF0B5B04C01AB941C9
:10545000130C7343DB18C91ACE086643360CB644E6
:1054600093B273431F0F1B01C01AB941130C73434E
:105470001F0B1B05C01AB941860D8F023E436643C0
:10548000360C092D24DB520A7243801A7703460A30
:105490006643360C16235B1BDE40DF40BF196446B3
:1054A0006643821B7046043506330100D940A8408C
:1054B000C01900D30131A24206D20023F0BD000082
:1054C000000000D0FFFFFFFF121B0130F3D3F1E714
:1054D00009277F1BFE406446A2B27243801A00D2A5
:1054E0000139220C7243130C1204821A99410B00E9
:1054F0007046043513370100F940A840801900D3E5
:105500000131002B02D1A2420AD2F0BD013000D3FA
:105510000131121BFAD2013BF8D1A24200D2F0BDF8
:10552000013000D30131121BF7E7F0B51C0C00D09D
:1055300080E00CB400251C0A04D11B02160E334374
:10554000120208351C0B04D11B01160F3343120144
:1055500004359C0B04D19B00960F33439200023517
:10556000DC0B02D192185B4101351C009718644195
:105570000134464F7C66464C3C660E0CFFE7FFE765
:10558000FFE7C0463C6F6643360C7703BE4697B2D2
:105590007743C01B00D20139C01B00D201399FB232
:1055A0007743C91BC91B170C77437E04FF0B801B75
:1055B000B941CE086643360C0C2D33DBB644120BD2
:1055C0001F053A431B0B97B27743C01B00D201392A
:1055D0009FB27743C91B170C77433E043F0C801BD7
:1055E000B941860D8F023E43664329277F1BFE404B
:1055F0000C3D7746AF40BF1930BCA2B2ABB272438C
:105600007343801A9941220C7243130C1204801ABE
:10561000994102000B000137001BA941F9D2781E05
:105620000021F0BD0C277F1BFE4077467F0BAF406B
:10563000FF19E0E700245D1C07D0144F7D66396632
:10564000FFE7FFE7FFE7FFE73C6F95B29EB26543D8
:105650006643401BB141150C1E0C6543664336047E
:105660002F0C3E432D04401BB141994204D202004D
:105670000B0020000021F0BD01D19042F7D3801A29
:10568000994101349942F2D3F6E70000000000D0BE
:10569000FFFFFFFF48404140484018B41B4B5B6888
:1056A000FC46019308BD04DF6F59001018B4174B76
:1056B0001B68FC46019308BD00DF79590010944631
:1056C000134A926F920809D2624618B40F4BDB68F6
:1056D000FC46019308BD0CDF315C00100C4AF0B5AC
:1056E000146E556E576F166F6246FFF7EEFF084A4D
:1056F0001466556657671667F0BD18B4034B9B6870
:10570000FC46019308BD08DFD55A0010D80F0020D1
:10571000000000D0FFB550404240504059404B403F
:10572000594000E0FFB5154F4C00640D03D0BC425A
:1057300004D10C0314D80020090D09055C00640D88
:1057400003D0BC4204D11C030AD800221B0D1B0548
:1057500001264B4009D44B4003D58B4200D18242F5
:10576000FFBD9942FCD19042FFBD0B43DB180343C0
:105770001343F5D0C9434918FFBD0000FF070000DF
:1057800000B5FFF7CFFF804100BDC04600B5FFF771
:10579000C9FF01D9002000BD012000BD00B5FFF701
:1057A000B9FF01D9002000BD012000BD00B5FFF701
:1057B000B1FF804100BD012040054A00121804D805
:1057C0005A00121801D800207047012070470020AD
:1057D000704700000021002805D17047C1174840DC
:1057E000401AFAD0C90713B5064B1B6898470CBC82
:1057F000441CA2401005120B0349091B090519435B
:10580000114310BDD81000201F04000010B54C003B
:10581000620D8023D218DB00D21A5B057E2A10DDD0
:105820009E3A13DACC170903490819435242D14072
:10583000640001341532202A05DAD0400843604361
:1058400010BD002010BD0846604310BDC80FC01831
:10585000013810BD18B4044B5B6AFC46019308BDC7
:1058600024DFE15D00100000D80F002070B5132385
:105870001C78012C14D0012C14DC022C02DC1F4AF1
:105880001F4B9A641F48FFF771FC1F4B186070BDD7
:1058900099001A481A4A885001331F2BF8D9EAE7B1
:1058A0000023FAE71948FFF769FC05001848FFF7DD
:1058B00065FC023803789B007F2B19DD80222900CC
:1058C0000F4800F0ABFB022CD7D1124B1A88B5233E
:1058D0001B029A4209D1104B1A88104B9A4204D1EC
:1058E0000F4B1A880F4B9A42C7D00020FDF7CEFF0E
:1058F0000D4B0E4A32210E48FDF72EFF3559001090
:10590000D80F00204C330000D81000205344000072
:105910005346000054380000D838000049460000C3
:105920009C38000059460000189E0010C49E0010CC
:10593000789E001007B56046002800D100BE01889F
:105940000A0A0230DF2AFAD1C9B2820804D30288D7
:1059500040880004104300E00068024A5050039061
:1059600007BD0000D80F00200FB403BC0CBCF0B57D
:105970000124E407634000E0F0B50C0DCF0F661E74
:105980003605891B640503D3C943404200D3013166
:10599000640D03D0661CF60A07D0E41B00207F00CC
:1059A000791C89078912803C24031D0DDF0F6E1EB0
:1059B00036059B1B6D0503D3DB43524200D30133F5
:1059C0006D0D03D06E1CF60A07D0ED1B00227F0080
:1059D0007B1C9B079B12803D2D032F1B661B58D4FD
:1059E000A446202E46DA20371400BC401D00BD40DE
:1059F000F24033412A4380185941CB0F05D0C943A7
:105A0000C043002264425041514162464D0D28D1AD
:105A10000D0D07D100281FD0241940414941013AFA
:105A20000D0DF9D0640006D3013000D30131002CF4
:105A300001D140084000013A0BD4941CE40A04D17F
:105A400012051144DB071944F0BDD907204B194357
:105A500000E0D9070020F0BD0029DDD1002CDBD10A
:105A6000F0BD0132C6074008CD0728434908002E83
:105A7000E1D0D9E73C2E29DA203E40371400BC4063
:105A800000D00124F24014431A00BB401C43D3173A
:105A9000ACE7AC46202F08DA20360400B4400D00F5
:105AA000B540F84039412843A5E73C2F0CDA203FA8
:105AB00040360400B44000D00124F84004430800FC
:105AC000B1400C43C117EAE710001900002494E725
:105AD0000000F07FF0B50C0D661E3605891BE60A46
